:020000040000FA
:06000000E8EF3FF01200E2
:06200000E8EF3FF01200C2
:082008000600B6EF3EF01200E5
:06201800B9EF3EF01200DA
:06202A0006D814D8E66A96
:1020300077D8E55230EF10F0B5EC14F07DEC22F0DB
:10204000C66A9D96948C93809382948E928A928293
:10205000928492861200898892980F0EC16E1200A7
:102060001FEC2BF0DAEC2AF00001A66BA76B9A6B41
:102070000001936B0001946B0001956B0001B86B3C
:1020800025EC29F0E66A48EC28F0E552E66A64ECB3
:1020900028F0E5520001F40EBD6F89889298000186
:1020A000836B846B866B876B886B896B8A6B8B6B9E
:1020B0008C6B8D6B8E6B8F6B906B916B926B855174
:1020C00019E0010A17E0050A15E0010A13E0030A06
:1020D00011E0010A0FE0050A0AE0010A08E0080A17
:1020E00006E0010A01E006D0CAEC14F006D0BCEC10
:1020F00024F003D095EC2AF000D012000001A86B68
:10210000A96BAA6BAB6BAC6BAD6BAE6BAF6BB06B13
:10211000B16BB26BB36BB46BB56BB66BB76B1200D4
:10212000D9CFE6FFDACFE6FFE1CFD9FFE2CFDAFF82
:10213000FD0EDB500A0A33E00D0A2AE0030A21E013
:10214000010A1FE0030A1DE0040A13E0010A11E07E
:10215000080A0FE00A0A06E0010A03E027D000019E
:10216000839527D0A9EC1FF0000902E000018385C8
:1021700020D0000055EC24F0000902E00001838526
:1021800018D031EC22F0000902E00001838511D063
:1021900089EC1CF0000902E0000183850AD0ABEC59
:1021A00014F0000902E00001838503D0000183855B
:1021B00000D0000183B503D0FD0EDBCF85F0E552E2
:1021C000E5CFDAFFE7CFD9FF1200000160AD11D0F3
:1021D000000170AB0CD0000170AD06D073C0E6FFFB
:1021E0006DEC29F0E55202D061EC29F002D068ECE8
:1021F00029F00001BD5112E174C0E6FF3AEC29F06C
:10220000E5520001866F0001F40EBD6F070100A3C7
:1022100003D00001838702D000018397000170A9D9
:1022200002D0899801D089880001855101E17FD0D1
:102230000001A791000000019A517F0824E20000EC
:10224000000185510A0A1BE00D0A16E0030A11E09D
:10225000010A0FE0030A0DE0040A08E0090A06E09B
:102260000A0A01E00FD041EC20F00CD022EC25F05E
:1022700009D096EC22F006D09FEC1EF003D002ECC1
:1022800015F000D001D054D80001A7B1D1D700017A
:1022900070B348DB0001A7A50FD00001C651C711DC
:1022A0000BE100018381000171A704D0180EE66ED6
:1022B00090DAE5520001A7950001A7A70FD0000111
:1022C000C851C9110BE100018383000171A904D039
:1022D000190EE66E7EDAE5520001A79700018551DE
:1022E0000A0A1BE00D0A16E0030A11E0010A0FE0DA
:1022F000030A0DE0040A08E0090A06E00A0A01E000
:102300000FD0E6EC1FF00CD0EDEC24F009D01AEC65
:1023100024F006D048EC1EF003D038EC16F000D0C4
:102320007F0E0001831503E000000001838F12007F
:10233000000183A903D000010F0E9A6F00019A518A
:10234000240A01E1AAD1070A01E1A4D1010A01E1AD
:102350009ED1030A01E198D1010A01E190D13F0A1F
:1023600001E17CD1030A01E16FD1070A01E149D102
:10237000060A01E135D1070A01E116D1030A01E19C
:102380000DD1010A01E107D10E0A01E101D1010AD3
:1023900001E1EAD0020A01E1D3D0050A01E1B0D09F
:1023A000030A01E1A2D0010A01E194D01D0A01E172
:1023B0008ED00D0A3EE0030A08E0010A03E00001A6
:1023C000838983D1A66B010E9A6FA7A309D0A05170
:1023D00004E1020E9A6FA78178D10001848303D0B3
:1023E00000018493849572D9000915E09BC09AF08E
:1023F0000001A781100E9A5D03E2000183890AD0D3
:1024000000018481000167BB05D0200EE66E48EC18
:1024100028F0E5520DD0000184A10AD0000167BB6D
:1024200005D0A40EE66E48EC28F0E5520001849138
:102430004CD1000170AF0DD0A3C0E6FFA2C0E6FFF3
:10244000170EE66E11DAE552E552E5520001A79348
:102450003CD000018451040B17E10001A451A219E2
:1024600002E1A551A31910E1000171A50AD0A3C092
:10247000E6FFA2C0E6FF150EE66EF6D9E552E5527C
:10248000E5520001A79321D0000171A10AD0A3C099
:10249000E6FFA2C0E6FF120EE66EE6D9E552E5526F
:1024A000E5520001A22B000EA323F6C0A0F000010C
:1024B0007151020B08E00001A251A31104E1160EB4
:1024C000E66E87D9E5520001A7819A6BFED0000124
:1024D0008491FBD0FBD8000907E09BC0E6FF48ECE5
:1024E00028F0E55200019A6BF0D0F0D8000907E01F
:1024F0009BC0E6FF64EC28F0E55200019A6BE5D042
:10250000A6B108D0E3D8000904E09BC0CAF00001DE
:10251000A68115D0A6B308D0D9D8000904E09BC085
:10252000CBF00001A6830BD00001CA51CB1103E010
:102530000001848704D000019A6B00018497C5D004
:10254000A6B108D0C3D8000904E09BC0C6F00001C2
:10255000A68109D0BBD8000906E09BC0C7F00001E6
:10256000A7859A6BA781B1D0A6B108D0AFD80009D2
:1025700004E09BC0C8F00001A68109D0A7D80009DB
:1025800006E09BC0C9F00001A7879A6BA7819DD088
:10259000A7959A6B9AD0A7979A6B97D095EC2AF04B
:1025A00000019A6BA79391D0A6B109D00001FE510A
:1025B00005E025EC2BF000019E6FA68110D00001F4
:1025C000FE510DE000019E519E07000906E025EC3A
:1025D0002BF0E66EDBD8E552F2D79A6B00D075D0BF
:1025E0000001FE510DE025EC2BF000019B6F1E0E4B
:1025F0009B5D02E19A6B04D09BC0E6FFC7D8E55211
:1026000064D0A6B10BD00001FE5107E00001A26B1F
:1026100025EC2BF00001A46FA68115D00001FE511E
:1026200012E00001A36B25EC2BF00001A56F020E58
:102630009A6FA451A51103E10001848502D0000125
:1026400084950001A78341D00001848F1B0EE66EA4
:10265000C0D8E5520001A7899A6B37D037D8000956
:102660000DE09BC0E6FF1C0EE66ED6D8E552E552A3
:1026700000019A6B770E9B5D01E1A78926D025ECBE
:1026800029F000019A6B21D0A7899A6B1ED081AAEC
:102690009A6B1BD081BA9A6B18D0810E9B6F11D99F
:1026A0000001020E9B6F0DD90001030E9B6F09D92B
:1026B0000001040E9B6F05D97F0E0001B8159B6FBA
:1026C00000D90001B82B9A6B00D012000001A79B23
:1026D000F2AC06D0F2AC02D0F29CFCD70001A78B82
:1026E000A7A313D00001F6510FE09BEC2AF00001E4
:1026F0009B6F9BC0E6FFB3EC2AF0E5520001A007F8
:10270000A7BBF28C010E11D00BD00001FE5108E0E6
:1027100025EC2BF000019B6FA7BBF28C010E05D0BE
:102720000001A7BBF28C000E00D01200D9CFE6FF4B
:10273000DACFE6FFE1CFD9FFE2CFDAFF0001FB51AC
:1027400007E0FD0EDBCFE6FFF8EC2AF0E55202D001
:102750000001838BE552E5CFDAFFE7CFD9FF120006
:10276000D9CFE6FFDACFE6FFE1CFD9FFE2CFDAFF3C
:10277000FD0EDBCFE6FFDADFE552000170B3B7D81C
:10278000E552E5CFDAFFE7CFD9FF1200D9CFE6FF58
:10279000DACFE6FFE1CFD9FFE2CFDAFF0001F75150
:1027A00007E0FD0EDBCFE6FFB3EC2AF0E55202D0E6
:1027B0000001838DE552E5CFDAFFE7CFD9FF1200A4
:1027C000000167B905D0A50EE66E64EC28F0E5526D
:1027D0001200D9CFE6FFDACFE6FFE1CFD9FFE2CF93
:1027E000DAFF0001A79BF2AC06D0F2AC02D0F29C5B
:1027F000FCD70001A78B000170A105D0FD0EDBCF37
:10280000E6FFAEDFE5520001A7BBF28CE552E5CF53
:10281000DAFFE7CFD9FF1200D9CFE6FFDACFE6FF24
:10282000E1CFD9FFE2CFDAFF0001A79BF2AC06D0DF
:10283000F2AC02D0F29CFCD70001A78B000170A182
:102840000AD0FD0EDBCFE6FF71DFE552FC0EDBCFD9
:10285000E6FF86DFE5520001A7BBF28CE552E5CF2B
:10286000DAFFE7CFD9FF1200D9CFE6FFDACFE6FFD4
:10287000E1CFD9FFE2CFDAFF0001A79BF2AC06D08F
:10288000F2AC02D0F29CFCD70001A78B000170A132
:102890000FD0FD0EDBCFE6FF49DFE552FC0EDBCFAC
:1028A000E6FF44DFE552FB0EDBCFE6FF59DFE552E2
:1028B0000001A7BBF28CE552E5CFDAFFE7CFD9FFE5
:1028C00012000001A79BF2AC06D0F2AC02D0F29C41
:1028D000FCD70001A78B100EE66E28DFE5529BC0E7
:1028E000E6FF3EDFE5520001A7BBF28C12000001BB
:1028F000A79FF2AC06D0F2AC02D0F29CFCD700014C
:10290000A78F10D8130EE66E11DFE552D2C0E6FF96
:102910000DDFE552D3C0E6FF09DFE5520001A7BF96
:10292000F28C12000001A79DF2AC06D0F2AC02D0EE
:10293000F29CFCD70001A78D17EC29F00001D0A371
:1029400006D0140EE66EF2DEE5520001D0930001CF
:06295000A7BDF28C12008D
:0A29560009D812D81CD895EC2AF01D
:102960000101016B000E00D012009D9A9D98AC6A87
:10297000AB6AB86A948C948E938093821200949C74
:10298000948E93909382B886AC84AB8E9F9A9F98D6
:10299000AC8A1200D9CFE6FFDACFE6FFE1CFD9FF4C
:1029A000E2CFDAFFE6529D9A9D987DC0AFFF7EC0D0
:1029B000B0FFB8B0B890B89E9EAA02D0AE50DF6EFD
:1029C0009D8AABB2AB98000177AD02D0AB8801D045
:1029D000AB9877A702D0818001D081900001A86BCD
:1029E000A96B00018B6B8C6B8D6B8E6B8F6B906BFF
:1029F000916B926B3DD9E552E552E5CFDAFFE7CF17
:102A0000D9FF12000001A891F2AC06D0F2AC02D0BE
:102A1000F29CFCD70001A881000177A702D0818039
:102A200001D0819000019A5101E11AD1870A01E198
:102A3000E0D0010A01E196D0030A01E176D0040A50
:102A40003CE0030A0AE0010A08E0070A06E0040A7B
:102A500002E007D100007FDF07D10001A6B116D048
:102A6000ACA202D10001A9890001A681AC869D8893
:102A7000AD6A0001A883E0EC13F0000178A505D051
:102A8000840EE66EE9EC13F0E552EED0820E000102
:102A90009A5D0AE19EA807D09D980001A8930001C5
:102AA0009A6B0001A781E0D0840E00019A5D02E1DB
:102AB0000001A6870001810E9A6F0001A6B30CD019
:102AC000ACA2D2D066EC13F0000905E00001A683A9
:102AD0009BC09FF001D0C8D00001A6A325D0000163
:102AE000A6A70BD09EA807D00001A6970001550EFF
:102AF0009B6F2EDB01D0B8D017D000019F5109E1A8
:102B00009EA805D09D980001A89300019A6BACD0B7
:102B10000BD09EA809D066EC13F0000905E0000177
:102B20009F07E0EC13F014DB9FD00001A6B10DD09D
:102B300066EC13F0000908E09BC0AFFFAFCF91F047
:102B40000001A6810001A7810CD066EC13F00009FA
:102B500008E09BC0B0FFB0CF92F000019A6B00017B
:102B6000A78182D00001A6B110D066EC13F0000955
:102B70000CE00001A6819BC09DF09BC0E6FFBCD885
:102B8000E552000902E00001A6890001A6B308D0C1
:102B900066EC13F0000904E00001A6839BC09EF0E0
:102BA0000001A6A325D000019E5106E100019A6B09
:102BB0000001A7811DD01BD066EC13F0000916E0C0
:102BC00000019E070001A6A910D00001AD510DE043
:102BD0000001AE51EA6A000FE96E010EEA229BC0C5
:102BE000EFFF0001AD070001AE2B01D001D0DBD714
:102BF0003BD066EC13F0000932E0880EE66E96ECEE
:102C000013F0E5529BC0E6FF96EC13F0E5529BC033
:102C1000E6FF72D8E55200091AE0ADC0E6FF96EC77
:102C200013F0E5520001AD51AD0700090FE00001BE
:102C3000AE51EA6A000FE96E010EEA22EF50E66E2D
:102C400096EC13F0E5520001AE2BECD704D0E66A07
:102C500096EC13F0E55200019A6B0001A78104D0B5
:102C600003D00001838900D00001A8B1F28C1200CA
:102C7000D9CFE6FFDACFE6FFE1CFD9FFE2CFDAFF27
:102C8000E6520001A9A102D000018B810001A991A7
:102C900000010001A951020B03E1AB50020B06E059
:102CA00000018B83AB98AECF9CF0AB880001A99359
:102CB0000001A9A502D000018B870001A995AFCF23
:102CC00091F0B0CF92F00001A9A704D0E0EC13F08E
:102CD0000001A99781B202D000018B857F0E00010F
:102CE0008B1503E0000000018B8FE552E552E5CF24
:102CF000DAFFE7CFD9FF1200D9CFE6FFDACFE6FF40
:102D0000E1CFD9FFE2CFDAFF0001010EAA6F12D89E
:102D1000000908E0FD0EDB500001AB5D02E1010E91
:102D200003D0F5D7000E00D0E552E5CFDAFFE7CFAC
:102D3000D9FF1200D9CFE6FFDACFE6FFE1CFD9FF06
:102D4000E2CFDAFFE6520001AA51EA6A000FE96E0B
:102D5000010EEA22EFCFDFFFDFAE15D0DFCFACF000
:102D60000F0EDF14AD6FAA2BAA51EA6A000FE96EAD
:102D7000010EEA22EFCFABF0AA2BAAC0AEF0AD5104
:102D8000AA27010E02D0000E00D0E552E552E5CF91
:102D9000DAFFE7CFD9FF1200D9CFE6FFDACFE6FF9F
:102DA000E1CFD9FFE2CFDAFFE652ABA402D00001B7
:102DB000A981ABA202D00001A983AECF9CF0000094
:102DC00000019C5101E0D7D000010001A951010B85
:102DD00001E1D1D00001A9910001A98D000178A7DE
:102DE00005D0830EE66EE9EC13F0E5520001A889E8
:102DF0000001A89B0001A89F0001A8970001A895C9
:102E00000001A897000100017751800B01E1B2D0C9
:102E100000010001A951100B01E0ACD0A60EE66E36
:102E20000E0EE66E50EC2AF0E552E5520001A9853F
:102E3000A1B206D082AE03D00001A99501D0F8D787
:102E400000000001A9B579D0B8800001B16B000184
:102E5000A98B0001A985100EE66E270EE66E50ECD8
:102E60002AF0E552E552A1B21AD00001A9BB10D058
:102E700082AE0DD0050E0001B15D07E10000B890F3
:102E8000AECF9CF00001A9950AD00001A98B06D015
:102E900082BE04D00001A99B0001B12BE4D7B8A0E9
:102EA00003D0B8900001A98DB8AE04D0B890B89EF8
:102EB0000001A9850001A9B540D0AFCFA2F0B0CFE5
:102EC000A3F07DC0A4F07EC0A5F00001A2510001D6
:102ED000A45D0001A3510001A5590DE20001A45118
:102EE0000001A25D0001A26F0001A5510001A359DC
:102EF0000001A36F0CD00001A2510001A45D0001EC
:102F0000A26F0001A3510001A5590001A36F030E98
:102F10000F0B000105E0D890A533A433E806FBE1D0
:102F20000001A2510001A45D0001A3510001A559B7
:102F300002E20001A9850001A99D0001A9A50AD00E
:102F40007DC0AFFF7EC0B0FF0001A9BD02D000016F
:102F5000A99502D00001A88B000178A90BD0B05030
:102F6000E66EAF50E66E850EE66E34EC14F0E55278
:102F7000E552E552A2D000000001A9990001A987FD
:102F80000001A8BB03D00001A88B97D09CC0E6FF2E
:102F9000100EE66E0CEC14F0E552E552000178A13B
:102FA00008D09CC0E6FF800EE66E0CEC14F0E552F3
:102FB000E5520001A8BF3CD00001A88F0001A895F0
:102FC0000001A897000177AB32D09CC0E6FFE4D89F
:102FD000E55200019C5D0BE0000178AD08D09CC07B
:102FE000E6FF870EE66E0CEC14F0E552E5529CC04D
:102FF000E6FF82DEE55200091AE00001AF6BB06B1C
:1030000000010001AC51200B09E03C0E0001AB5D5A
:1030100005E200019C510001AF6FB06B0001ACA94B
:1030200004D00001A88550D802D00001A88745D05F
:10303000000177AB42D00001A8A73FD00001AD51FD
:1030400025E000019C51146E156A14500001AF2751
:1030500015500001B0230001FF0ED880AF55000EBF
:10306000B05506E2FF0E0001AF5F000E0001B05B3D
:103070000001AE51EA6A000FE96E010EEA229CC01F
:10308000EFFF0001AE2B0001AD0717D00001ACBD72
:1030900012D00001AF1D00019C5D02E100000BD0C9
:1030A000000178AB08D0ABC0E6FF860EE66E0CECF4
:1030B00014F0E552E5520001A897E552E552E5CF3C
:1030C000DAFFE7CFD9FF1200D9CFE6FFDACFE6FF6C
:1030D000E1CFD9FFE2CFDAFFE6520001A8A302D088
:1030E00091DC2FD0A8A52CD0AD5121E0AE51EA6AD9
:1030F000000FE96E010EEA22EFCFDFFFDF50146E02
:10310000156A1450AF271550B023FF0ED880AF5565
:10311000000EB05504E2FF0EAF5F000EB05BDFCFD4
:10312000E6FF1DD8E5520001AE2BAD0708D0ACBDBF
:1031300004D0AF1DE66E13D8E5520001A89501D06A
:103140009D98E552E552E5CFDAFFE7CFD9FF1200AF
:103150000001A8839BC0E6FF02D8E5521200D9CF38
:10316000E6FFDACFE6FFE1CFD9FFE2CFDAFFFD0ECF
:10317000DB50AD6E9D88000178A308D09BC0E6FFB0
:10318000810EE66E0CEC14F0E552E552E552E5CF07
:10319000DAFFE7CFD9FF1200D9CFE6FFDACFE6FF9B
:1031A000E1CFD9FFE2CFDAFFE652FD0EDB9CDB9EDA
:1031B000FD0EDB50170BDF6EDF0415E0020EDF5C47
:1031C00012E0040EDF5C0FE0070EDF5C0CE0100E77
:1031D000DF5C09E0130EDF5C06E0150EDF5C03E048
:1031E000160EDF5C02E1FD0EDB8CFD0EDB503A0BB0
:1031F000DF6EDF5015E00A0EDF5C12E0120EDF5CBE
:103200000FE0180EDF5C0CE0220EDF5C09E0280EF8
:10321000DF5C06E0300EDF5C03E03A0EDF5C02E1CB
:10322000FD0EDB8EFD0EDB5000D0E552E552E5CF02
:08323000DAFFE7CFD9FF12001D
:083238000001606B1FEC2BF09C
:10324000DAEC2AF095EC2AF015EC10F02DEC29F0D0
:103250000001646B6451130809E36451EA6A7F0F4B
:10326000E96E000EEA22EF6A642BF4D7E1D8000180
:10327000608DF18E938A1200000180938150200BA3
:1032800001E0808368A11FD081AA0ED060B70BD067
:10329000E66A48EC28F0E552C00EE66E64EC28F0D1
:1032A000E552000160870DD060A70BD0C00EE66E1E
:1032B00048EC28F0E552E66A64EC28F0E55200019B
:1032C000609780810CD080A10AD0E66A48EC28F093
:1032D000E552E66A64EC28F0E552000180910001B5
:1032E000D6AD0AD009C463F00001800E616F050EEF
:1032F000626F08D956EC3FF00001A7A906D0A79944
:103300000001FA5102E000016083000167AD07D0BF
:103310006A510001D880FA5502E200016083000181
:1033200067AF09D00001BE5106E12FD80001FA5164
:1033300002E000016083000160BD18D06051040B01
:1033400003E16051100B12E00001D6AF0FD0EED9AF
:10335000000160A505D06095E66A1BDAE55205D04C
:10336000609999C0E6FF15DAE552E7D9000160A33C
:103370000BD00001D6AF08D0000160930001FA51D4
:1033800003E0D4D9E4D9D9D912006BC0BEF0000152
:10339000BE5101E1BE691200D9CFE6FFDACFE6FFE8
:1033A000E1CFD9FFE2CFDAFFFD0EDB50090A29E0B9
:1033B0000E0A24E0010A1FE0030A1AE0010A16E0DF
:1033C000070A12E0010A0DE0030A05E0010A01E024
:1033D0001FD032DF1DD06FC0E6FF90EC10F0E55239
:1033E00017D00001608514D04ED812D017D810D055
:1033F000000160830DD015EC10F00AD030EC10F015
:1034000007D000006FC0E6FF90EC10F0E55200D04E
:10341000E552E5CFDAFFE7CFD9FF120050D8000917
:1034200004E006D800017F8B02D000017F9B1200D0
:103430000001646B180E645D25E2040E146E570ED5
:10344000156E000E166E64C017F0186A196A1450D3
:103450001724F36E15501820F46E16501920F86ECC
:10346000F4CFF7FFF3CFF6FF0800F550E66E645196
:10347000EA6A670FE96E000EEA22E552E750EF6E46
:10348000642BD8D712000001646B120E666FA96A14
:10349000180E0001645D0EE26451642BEA6A670F46
:1034A000E96E000EEA22EF50A86EA8506627D2EC13
:1034B0003FF0EED7661D010FA86ED2EF3FF000017E
:1034C000120E666F646B180E645D13E264C0EDF05B
:1034D000C9EC3FF0E66E00016451EA6A670FE96EDD
:1034E000000EEA22E552E750EF6EA8506627642BE3
:1034F000EAD764C0EDF0C9EC3FF0000166276651E1
:1035000000D0120000017F990001608100010001DC
:103510006051010B01E109D1000100017F51100B45
:1035200001E003D1B0D9000903E100016091FDD0B1
:10353000000166510B0A01E1E9D0490A01E1CAD054
:10354000200A01E1C7D0680A01E1C1D0030A01E104
:10355000BBD0010A01E1B5D00F0A01E1A6D0010AF2
:1035600001E197D0030A73E0010A4FE0070A33E054
:10357000010A13E0030A06E0010A01E0D2D00001CB
:103580006091D2D080D9000905E066C0E6FF04DF73
:10359000E55202D000017F89C7D00001608D000193
:1035A000646B180E0001645D15E26DD900090CE032
:1035B00000016451EA6A670FE96E000EEA2266C0F4
:1035C000EFFF0001642B05D000017F890001609DA1
:1035D00001D0E7D7A9D057D9000914E066C064F03C
:1035E00064C096F0FFC097F00001645164070009C1
:1035F00008E049D9000902E072D902D000017F89B0
:10360000F3D702D000017F898FD03DD900091CE09B
:1036100066C064F0000164516407000914E033D906
:1036200000090EE00001FB5106E066C0E6FFF8EC81
:103630002AF0E55204D000017F8500017F8902D085
:1036400000017F89E7D702D000017F896DD01BD9A7
:1036500000091CE066C064F00001645164070009C1
:1036600014E011D900090EE00001F75106E066C030
:10367000E6FFB3EC2AF0E55204D000017F87000199
:103680007F8902D000017F89E7D702D000017F89BE
:103690004BD0F9D8000906E066C0E6FF48EC28F0F8
:1036A000E55202D000017F893FD0EDD8000906E045
:1036B00066C0E6FF64EC28F0E55202D000017F8985
:1036C00033D01FEC2BF030D0DAEC2AF02DD095EC73
:1036D0002AF02AD053EC26F0A66AA68EA684FE0E07
:1036E000F66E7C0EF76EF86AF56A0C00550EA76E42
:1036F000AA0EA76EA6820001B50EBE6F0001BE51D4
:1037000003E0C9EC28F0FAD7FF000ED0BCD80009BE
:1037100005E066C099F00001608902D000017F8950
:1037200003D000017F8900D0F1D612000001C00E45
:10373000616F050E626F636B1200400E0001635DE6
:1037400004E2800EE66EB2D8E5524EEF3FF0400E36
:103750000001D8806355FE0F646F0001FA5100012B
:10376000D880645502E2FAC064F0860EE66E9ED8F8
:10377000E55264C0E6FF9AD8E5520001645164073F
:10378000000906E0E0EC2AF0E66E90D8E552F5D7A5
:103790001200D9CFE6FFDACFE6FFE1CFD9FFE2CFC3
:1037A000DAFF880EE66E82D8E552FD0EDBCFE6FF2B
:1037B0007DD8E552810EE66E79D8E552050EE66EAB
:1037C00075D8E552030EE66E71D8E552820EE66EAC
:1037D0006DD8E5520001646B180E645D0DE2645112
:1037E000EA6A670FE96E000EEA22EF50E66E5ED8D5
:1037F000E5520001642BF0D7830EE66E57D8E552F0
:103800000001646B140E645D0DE26451EA6A7F0F7F
:10381000E96E000EEA22EF50E66E48D8E55200014C
:10382000642BF0D7840EE66E41D8E5520001609B10
:10383000F2AC06D0F2AC02D0F29CFCD70001608B57
:10384000FEC0E6FF33D8E552FFC0E6FF2FD8E552B1
:10385000FAC0E6FF2BD8E552FBC0E6FF27D8E552B9
:10386000F6C0E6FF23D8E552F7C0E6FF1FD8E552C1
:10387000FFC098F0000160BBF28CE552E5CFDAFFA3
:10388000E7CFD9FF120000016351630700090BE085
:1038900061C0E9FF62C0EAFF612B000E6223EFCF37
:1038A00066F0010E02D0000E00D01200D9CFE6FF64
:1038B000DACFE6FFE1CFD9FFE2CFDAFF00016351B3
:1038C000632BEA6A6125E96E6251EA22FD0EDBCFC5
:1038D000EFFFE552E5CFDAFFE7CFD9FF1200000195
:1038E000609BF2AC06D0F2AC02D0F29CFCD7000197
:1038F000608B0001FF5106E066C0E6FF3DEC2BF057
:10390000E55203D000017F837F89000160BBF28C08
:023910001200A3
:0E3912007EEC10F003D8000E00D01200C66A42
:103920009D960001A86B8A828A80938293809282FE
:1039300092847DC0C8FF3E0E00017E150109C56E50
:10394000160EC66E9E969F969D86C68A1200B0C0C1
:10395000ACF00001A89B00018BB121D038D8400EFB
:103960000001AD5D01E01BD0B1A713D0B251AB5D3A
:103970000FE3B251B325AB5D0BE2B251AB5DB26F59
:10398000B251B35FB251B427ABC0B2F0A88B07D02D
:1039900005D0AB51B25D02E1A88B01D0DCD712009B
:1039A0000001010EAC6FA899A89B11D8200E000150
:1039B000AD5D05E1AA51AE5D02E1A88907D0800E98
:1039C000AD5D04E000018B51010BEFE0120000013E
:1039D000AC51EA6A000FE96E010EEA22EFCFADF0BA
:1039E000800EAD5D38E0AC2B200EAD5D10E1AC512A
:1039F000EA6A000FE96E010EEA22EFCFAEF0020E86
:103A0000AC27ACC0AFF0AC2BACC0B0F024D0400EB3
:103A1000146EF00EAD15145C1CE10F0EAD15B16FF8
:103A2000F00EAD17AC51EA6A000FE96E010EEA2202
:103A3000EFCFB2F0AC2BAC51EA6A000FE96E010E89
:103A4000EA22EFCFB3F0AC2BACC0B4F0B351AC274B
:103A500002D000018B8112009EA60AD19E96C7A0BB
:103A60009FD0C7AA5AD0C9CFA9F0000178A308D027
:103A7000A9C0E6FFC10EE66E0CEC14F0E552E5526B
:103A80000001A8A116D0A9C0ABF0020E0001775D1D
:103A90000DE10001A8A90AD05ADF0001AF51EA6A7E
:103AA000000FE96E010EEA22ABC0EFFF0001A89102
:103AB00032D0020E0001775D2EE10001A8AB17D0D5
:103AC000B1B10CD0B3510AE0B451EA6A000FE96E0B
:103AD000010EEA22A9C0EFFFB42BB307B1A707D0AC
:103AE000AF51EA6A000FE96E010EEA22EF2AA851EF
:103AF000400B11E000017851400B0DE00001A89D42
:103B0000ABC0E6FFAAC0E6FFCA0EE66E34EC14F0C6
:103B1000E552E552E552C68843D0C9CFAAF000016C
:103B2000B781000178A108D0AAC0E6FFC00EE66EFA
:103B30000CEC14F0E552E5520001AA91A881020EA6
:103B40000001775D03E10001A88D2ADFC7A425D01D
:103B50000001A883020E0001775D1EE10001A8A903
:103B600009D0AF51EA6A000FE96E010EEA22EFCFE9
:103B7000ABF0EDDE0001A8AD0FD0A89D000178AB41
:103B80000BD0ABC0E6FFAAC0E6FFC90EE66E34EC70
:103B900014F0E552E552E55203D00001A893C6881F
:103BA0000001A8A31BD0C6B80BD0A8B108D0000153
:103BB00078A705D0C30EE66EE9EC13F0E5520ED0FF
:103BC000A893000178A905D0C40EE66EE9EC13F0C5
:103BD000E5520001770502E195EC2AF00001A8A367
:103BE00047D0000177510AE10001A8A103D07CC0B1
:103BF000A9F002D07BC0A9F03CD838D0770514E1F9
:103C00000001F65106E09BEC2AF00001A96F31D8C3
:103C10000AD00001A885000179A505D0C80EE66E7E
:103C2000E9EC13F0E55222D00001A89FA8AB1AD00E
:103C3000B1B30FD0B3510DE0B451EA6A000FE96E91
:103C4000010EEA22EFCFA9F014D80001B42BB3077C
:103C5000A88FB1A707D0AF51EA6A000FE96E010E35
:103C6000EA22EF2AA8BF02D0A96903D80001A891CF
:103C70001200A9C0C9FFC688000178A508D0A9C054
:103C8000E6FFC20EE66E0CEC14F0E552E5521200AF
:103C90000001B7A10FD0F29CF2BCFDD7C7A80AD093
:103CA000000179A305D0C60EE66EE9EC13F0E552EB
:103CB0000001B791F28C80A203D000018C8302D066
:103CC00000018C9380A402D08C8101D08C910001E2
:103CD00077050DE10001A8A50AD00001F65107E023
:103CE0000001A8959BEC2AF00001A96FC2DF00013A
:103CF000A699C6AE04D0A689C69E00018B8DC6AC1F
:103D000005D00001A689C69C00018B8B7F0E0001A7
:103D10008B1502E0838F8B8F000178AF0FD00001ED
:103D2000955100018B5D0AE08BC095F08BC0E6FFDA
:103D3000C70EE66E0CEC14F0E552E55212000001DD
:103D40009A51C30A01E17BD0010A31E0030A09E07C
:103D5000010A03E000018389D2D0E1DD00019A6B02
:103D6000CED00001A6B30BD066EC13F0000906E03C
:103D70009BC09EF00001A68395EC2AF017D00001AD
:103D80009E510DE066EC13F0000908E09BC0E6FFD1
:103D9000B3EC2AF0E55200019E07F1D700D00001F4
:103DA0009E5104E10001A88700019A6BA8D0000190
:103DB000A6B30BD0030E0001FE5D06E3A1D80001FF
:103DC000A6A302D00001A78139D0A6B51BD066EC0E
:103DD00013F09BC0AAF066EC13F09BC0ABF066EC4E
:103DE00013F09BC0B5F00001A895DADD0001A8A989
:103DF00004D0ADDD0001A8BBA8850001A6850001A7
:103E0000A7811CD00001B55116E066EC13F0000943
:103E100011E00001A8A50AD0B35108E0B451EA6A44
:103E2000000FE96E010EEA229BC0EFFFB42BB5072D
:103E3000B307E8D700D0F28C00019A6B60D0000184
:103E4000A6B30BD0020E0001FE5D06E359D80001B7
:103E5000A6A302D00001A78151D0A651040B30E1E6
:103E6000040E0001FB5D2CE366EC13F09BC0AAF08E
:103E700066EC13F09BC0ABF00001A89591DD00014A
:103E8000A8A919D064DD0001A8AB15D0A885CB0E78
:103E9000E66EF8EC2AF0E552AAC0E6FFF8EC2AF04C
:103EA000E552ABC0E6FFF8EC2AF0E552B3C0E6FFFE
:103EB000F8EC2AF0E5520001A6850001A7811ED08A
:103EC0000001A8A518D0B35116E00001FB5112E083
:103ED0000001B451EA6A000FE96E010EEA22EFCF49
:103EE0009BF09BC0E6FFF8EC2AF0E5520001B42BF2
:103EF000B307E9D700D0F28C00019A6B00D0120012
:103F0000C750100B03E1C750080B02E0000E01D0B0
:103F1000010E146EC750100B01E0010E141018E0D2
:103F2000F2AC02D0F29CFCD7C750100B03E1C75093
:103F3000080B02E0000E01D0010E146EC750100BEA
:103F400001E0010E141003E00001A68301D0F28C01
:023F500012005D
:0E3F52002FD8C69A7EC0C8FFC56AC8CF92F0AD
:103F60008A828A8093829380280EC66E928292847F
:103F70000F0EC1140C0802E20C0EC16E0001F40E0B
:103F8000BB6F00017CA502D0948C01D0949C7CA1D5
:103F900002D0828C01D0829C7CA702D0948E01D06A
:103FA000949E7CA302D0828E01D0829E000E00D00F
:103FB000120000018B6B8C6B8D6B8E6B8F6B906B1B
:103FC000916B926BC66A9382938012000001A6994E
:103FD000C6AE04D0A689C69E00018B81C6AC05D0B2
:103FE0000001A689C69C00018B830001A6A90BD005
:103FF000000178A308D08BC0E6FF890EE66E0CECBA
:1040000014F0E552E5527F0E00018B1502E0838F1C
:104010008B8F000178A50FD00001945100018B5DBA
:104020000AE08BC094F08BC0E6FF8A0EE66E0CECC3
:1040300014F0E552E5520001BB5103E1F40EBB6FF1
:104040000ED800018F9594BC8F858F9794BE8F8773
:104050008F9182BC8F818F9382BE8F83120000016B
:10406000F40EBB6F3D0EC06E070EC26EC2B2FED71D
:10407000C4CF90F00B0EC26EC2B2FED7C4CF91F087
:10408000120000019A519C0A01E194D1070A01E152
:104090008BD1010A01E182D1030A01E17AD1010A3F
:1040A00001E172D10F0A01E16AD1010A01E162D195
:1040B000030A01E159D1010A01E150D1070A01E1E6
:1040C00048D1010A01E140D1030A01E138D1010AD6
:1040D00001E130D1170A01E122D1010A01E105D144
:1040E0000C0A01E102D10F0A01E1A5D00C0A01E19D
:1040F000A2D00D0A4EE0070A37E0010A20E0030AC9
:1041000009E0010A03E000018389AAD122DF00014E
:104110009A6BA6D10001A6B10DD0C580A681000181
:1041200077A105D0800EE66EE9EC13F0E552E0ECE5
:1041300013F004D0C5B002D000019A6B91D10001F8
:10414000A6B10DD0C584A681000177A305D0810E4C
:10415000E66EE9EC13F0E552E0EC13F004D0C5B4E0
:1041600002D000019A6B7CD10001A6B10DD0C582AE
:10417000A681000177A505D0820EE66EE9EC13F06A
:10418000E552E0EC13F004D0C5B202D000019A6B06
:1041900067D10001A6B109D066EC13F0000904E074
:1041A0009BC09FF00001A68145D0A6B30BD00001B3
:1041B0009F5103E100019A6B53D1C7B002D00001B7
:1041C000A68338D0A6B519D066EC13F0000914E028
:1041D00000019F070001A6859E969BC0C9FF0001B4
:1041E00077AF08D09BC0E6FF870EE66E0CEC14F0AC
:1041F000E552E552E0EC13F01DD09EA61BD09E9632
:10420000C5AC0BD0000177AB05D0860EE66EE9ECAD
:1042100013F0E55200018B8508D0000177AB05D083
:10422000850EE66EE9EC13F0E5520001A693A69523
:10423000E0EC13F015D10001A6B109D066EC13F043
:10424000000904E09BC09FF00001A6814DD0A6B3F9
:104250000CD000019F5105E100019A6B0001A7817C
:10426000FFD00001A683C5863FD0A6B523D09EA669
:1042700020D09E96C9CF9BF0000178A108D09BC0AA
:10428000E6FF880EE66E0CEC14F0E552E55261ECA8
:1042900014F000019F070001A685C59A890E000150
:1042A0009A5D04E100019F5101E1C58AC588E0ECF7
:1042B00013F01AD09EA618D09E96000177A70DD0B5
:1042C000C5AA06D0840EE66EE9EC13F0E55205D0DF
:1042D000830EE66EE9EC13F0E5520001A693A69575
:1042E0000001A781E0EC13F0BBD09EA617D09E96EC
:1042F000C9CF9BF061EC14F09BC09FF0C59AC588B4
:104300000001A681A683A6850001850E9A6F8A0EFC
:104310009A5D02E1890E9A6FE0EC13F0A1D066EC91
:1043200013F0000906E09BC0C8FFC8CF92F000015F
:104330009A6B96D0829C9A6B0001A78191D0828C57
:104340009A6B0001A7818CD0949C9A6B0001A78185
:1043500087D0948C9A6B0001A78182D082BC03D055
:104360009A6B0001A7817CD082AC03D09A6B0001CC
:10437000A78176D0829E9A6B0001A78171D0828E30
:104380009A6B0001A7816CD0949E9A6B0001A78163
:1043900067D0948E9A6B0001A78162D082BE03D051
:1043A0009A6B0001A7815CD082AE03D09A6B0001AA
:1043B000A78156D09A6B00018B85240EE66EF40E11
:1043C000E66E50EC2AF0E552E55266EC13F09BC025
:1043D0009CF066EC13F09BC09DF0C580C5A003D097
:1043E000A1B201D0FBD7A1B23BD09E969CC0C9FF21
:1043F0009EB603D0A1B201D0FBD7C5BC31D0A1B2CB
:104400002FD09E969DC09FF000019F511EE0C58653
:104410009EB603D0A1B201D0FBD7A1B216D0C9CFAE
:104420009BF09E9661EC14F0C59A00019F0501E196
:10443000C58AC5889EB603D0A1B201D0FBD7A1B270
:1044400004D09E9600019F07DFD7C584C5A403D082
:10445000A1B201D0FBD7A1B203D000018B9500D04F
:02446000120048
:0E44620004D852D8000E00D0120000016F5195
:10447000060A18E0030A0EE0010A03E000018B853A
:1044800016D078A5AB88AB8E949C948EAC8A9F9AFC
:104490009D8A0DD078B1B888AC8EAC88AB8E949CD8
:1044A000948E05D0AC88AB8E948C948E00D0000195
:1044B0008BB522D07DC0AFFFAFCF91F07EC0B0FFF3
:1044C000B0CF92F0B886AC84AC8A78C08DF0000191
:1044D0007CA502D0938001D093907CA102D08180F2
:1044E00001D081907CA702D0938201D093927CA3CB
:1044F00002D0818201D081921200AC6AAB6AB86AA4
:10450000948C948E93809382120000018B6B8C6B41
:104510008D6B8E6B8F6B906B916B926B0001A86BA8
:10452000AB94AB9278C08DF01AEF24F000019A5151
:104530009B0A01E164D1010A01E15BD1030A01E1B7
:1045400053D1010A01E14BD10F0A01E143D1010A24
:1045500001E13BD1030A01E132D1010A01E129D194
:10456000070A01E121D1010A01E119D1030A01E1A0
:1045700011D1010A01E109D11A0A01E1FCD0030AB3
:1045800001E1EFD0010A01E1CFD00E0A01E199D09B
:10459000010A01E196D0020A01E189D0010A01E194
:1045A0007CD0070A42E0010A07E0020A03E00001AA
:1045B00083892BD156DF29D10001A6B10BD066EC3F
:1045C00013F0000906E00001A6819BC09FF00001E6
:1045D000A7812AD0A6B310D000019F5106E1ACA25A
:1045E00002D000019A6B11D104D09EA802D0000124
:1045F000A6830001A78118D066EC13F0000901E141
:1046000004D19BC0ADFF000179A308D09BC0E6FF99
:10461000800EE66E0CEC14F0E552E5520001A69314
:1046200000019F07E0EC13F0F0D00001A6B10FD01D
:1046300066EC13F000090AE003D000018389E5D09D
:104640000001A6819BC09FF0AB98AB9A25D0A6B382
:104650000CD000019F5105E1AB9A00019A6BD5D0B7
:1046600003D00001A683AB8A17D0ABBA15D0AECF6A
:104670009BF0000179A108D09BC0E6FF810EE66E99
:104680000CEC14F0E552E55261EC14F00001A69335
:1046900000019F07E0EC13F0B8D003D0000183893C
:1046A000B4D000018D95AB8800019A6BAED003D0D9
:1046B00000018389AAD000018D85AB9800019A6B17
:1046C000A4D003D000018389A0D00001A6B107D0F7
:1046D000AC8AAC86AD6AA6810001A78124D0A6B3BE
:1046E00016D09EA813D0870E00019A5D09E166ECF2
:1046F00013F0000904E09BC0ADFF0001A68302D0C7
:104700000001A683E0EC13F00001A7810CD09EA865
:104710000AD0ACB608D0ACA204D000019A6B00015C
:10472000A781E0EC13F071D00001A6B10DD066ECCA
:1047300013F0000908E09BC0AFFFAFCF91F000017C
:10474000A6810001A7810CD066EC13F0000908E0F7
:104750009BC0B0FFB0CF92F000019A6B0001A7811F
:1047600054D003D00001838950D0B88800018D81D6
:1047700000019A6B4AD003D00001838946D0B898D3
:1047800000018D9100019A6B40D081909A6B0001DD
:10479000A7813BD081809A6B0001A78136D093908E
:1047A0009A6B0001A78131D093809A6B0001A78199
:1047B0002CD081B003D09A6B0001A78126D081A0B4
:1047C00003D09A6B0001A78120D081929A6B0001DF
:1047D000A7811BD081829A6B0001A78116D093928A
:1047E0009A6B0001A78111D093829A6B0001A78177
:1047F0000CD081B203D09A6B0001A78106D081A2B0
:1048000003D09A6B0001A78100D012009EAA11D09C
:10481000AECF9BF061EC14F0000179A108D09BC0F1
:10482000E6FF810EE66E0CEC14F0E552E552000155
:10483000A88112000001A8A103D0A891E0EC13F018
:1048400000018F9593B08F858F9793B28F878F914B
:1048500081B08F818F9381B28F830001A699ABA421
:1048600004D0A689AB9400018B81ABA205D00001D6
:10487000A689AB9200018B830001A6A90BD0000191
:1048800079A508D08BC0E6FF820EE66E0CEC14F022
:10489000E552E5527F0E00018B1502E0838F8B8F6E
:0A48A000AFCF91F0B0CF92F01200FC
:0648AA008CD804D864D88C
:1048B000000E00D01200020E00016F5D06E0030E34
:1048C0006F5D03E00B0E6F5D56E178A102D0C78EDD
:1048D00001D0C79E78A302D0C78C01D0C79C020E1E
:1048E0006F5D03E00B0E6F5D2DE1230EC66E93929C
:1048F0007CA11DD000018F8100017C51020B02E0E0
:10490000828C01D0829C7C5100018F93020B01E0CC
:104910008F8300017C51040B02E0948C01D0949CA5
:104920007C5100018F95040B01E08F850AD078AF90
:1049300002D08B8C01D08B9C949C00018F918F9323
:104940008F9503D0050EC66E9382000178A502D024
:10495000C68801D0C69878C08CF0949E9380030ED0
:104960007D150001916F7EC092F091C0CAFF92C088
:10497000CBFFCA84C68A120000018B6B8C6B8D6BD7
:104980008E6B8F6B906B916B926BC69EC69C030E69
:1049900000017D150001916F7EC092F078C08CF00F
:1049A00000017CA10DD07C5100018F91010B01E031
:1049B0008F8100017C5100018F95040B01E08F85F0
:1049C000EDEF24F0948E93809382948C9282928661
:1049D0009284928AC66ACA9412000001A69FC6AE4B
:1049E00004D0A68FC69E00018B81C6AC05D0000105
:1049F000A68FC69C00018B830001A6AF0BD00001DF
:104A000077A508D08BC0E6FF820EE66E0CEC14F0A2
:104A1000E552E5527F0E00018B1502E0838F8B8FEC
:104A20008D9180B28D818D9380B28D838D9580B470
:104A30008D858D9780BA8D878F938250400B01E0D2
:104A40008F83120000019A51950A01E11FD1010ADA
:104A500001E110D1070A01E105D1010A01E1FAD013
:104A6000030A01E1EFD0010A01E1E4D01C0A01E1EF
:104A7000CED0070A01E1B8D0030A01E1B0D00F0A95
:104A800001E1A8D0040A01E186D07C0A27E0790A76
:104A90001DE0020A13E0010A09E00C0A03E000012C
:104AA000838900D102DF00019A6BFCD00001A69936
:104AB000A68B00019A690001A781F4D00001A689A4
:104AC000A69B00019A690001A781ECD00001A6898C
:104AD000A68B00019A690001A781E4D00001A6B16C
:104AE00013D066EC13F000090EE09BC09FF00001AC
:104AF000A6819E96000178B706D00001A6AB02D031
:104B0000949E01D0948E46D0A6B322D09E96A6AB9A
:104B100016D066EC13F0000901E1C4D0CA94CC6A47
:104B20009BC0C9FFCA84000177A308D09BC0E6FFE1
:104B3000800EE66E0CEC14F0E552E55201D0CA94FA
:104B4000CC6AC96ACA840001A683E0EC13F022D0C3
:104B50009EA6A8D0C9CF9BF09E96A6A90FD0000113
:104B600077A108D09BC0E6FF810EE66E0CEC14F036
:104B7000E552E55261EC14F0E0EC13F000019F0700
:104B80009F5105E00001A6930001A78103D0000119
:104B90009A6B88D087D00001A6B10BD066EC13F0D9
:104BA000000906E09BC092F00001A6810001A781E8
:104BB00010D066EC13F000090CE0030E00019B1509
:104BC0000001916F91C0CAFF92C0CBFFCA8400015F
:104BD0009A6B68D0948E9A6B0001A78163D0949EE3
:104BE0009A6B0001A7815ED000017CB10BD078AF39
:104BF00002D08B8C01D08B9C949C00019A6B00019D
:104C0000A78104D000019A6B0001A7814BD000015D
:104C10007CB10BD078AF02D08B9C01D08B8C949C54
:104C200000019A6B0001A78104D000019A6B00017A
:104C3000A78138D000017CB1829C00019A6B0001F1
:104C4000A78130D000017CB1828C00019A6B0001F9
:104C5000A78128D000017CB1949C00019A6B0001CF
:104C6000A78120D000017CB1948C00019A6B0001D7
:104C7000A78118D08250400B04E000017C51010B49
:104C800004E100019A6B0001A7810CD08250400B17
:104C900004E100017C51010B04E100019A6B000169
:064CA000A78100D0120004
:0A4CA60055EF26F06D6A696A0001FF
:104CB000D46B12006D966F886F84160E706E1E0E88
:104CC000716E0FD86D860001010ED46F12006896C8
:104CD0006896689668966E6A0001D66BD46B71EF21
:104CE00026F00401800E006F400E016F000E026F6F
:104CF000050E036F046B400E056F400E066F050E28
:104D0000076F800E086F400E096F800E0A6F050E48
:104D10000B6F400E0C6F0D6FC00E0E6F050E0F6FF8
:104D20001200685001E133D06850400B04E0695034
:104D3000400B01E0689C6850100B04E06950100BB8
:104D400001E068986850040B04E06950040B01E02E
:104D500068946850020B04E06950020B01E068920D
:104D60006850200B04E06950200B01E0689A6850FD
:104D7000010B04E06950010B01E068906850080BDA
:104D800004E06950080B01E068966A5000E01200E8
:104D900068BC689C68B8689868B4689468B268929F
:104DA00068BA689A68A002D092DF689068A602D0BC
:104DB00005D868966A5000E037EF3FF06C500DE17F
:104DC000040100513C0BE842E8420D0803E16D98F4
:104DD0001FD801D007D84CD904D0040E6C5C01E177
:104DE00002D812001200040105510AE10001D6A107
:104DF00005D0D691D5C06EFF050ED46FD69707D0DB
:104E00000001D651080B03E0DE5101E0ECD812009E
:104E10007F0E0501001502E10FD80DD07F0E0015A1
:104E2000010802E138D807D07F0E0015210802E101
:104E30003BD801D00DD9120005010151010A28E02B
:104E4000020A26E0090A24E0010A22E0070A20E01B
:104E50000C0A1EE0070A1CE00F0A1AE0010A10E023
:104E60000F0A0CE0030A01E013D002C5D5F00001DF
:104E7000D681F0D80001040ED46F0CD036D80AD0F9
:104E800002C5D7F0E7D80001060ED46FD68502D050
:104E9000DFD800D0120005010151060A02E0D8D87F
:104EA00002D05CD800D0120005010151010A06E0D1
:104EB0000B0A02E0CDD804D0CDD802D002D800D061
:104EC00012000501035107E0010A05E0030A03E0AF
:104ED000010A01E000D00401020E056F0501010E78
:104EE000406F020E416F00D0120005010351040A09
:104EF00032E0010A30E0030A2EE0010A2CE0040A45
:104F000028E0210A1BE0200A0EE0030A01E023D07A
:104F10000001120EDE6F5B0ED86F530ED96F000EBC
:104F2000DA6F5AD81AD00001290EDE6F6D0ED86FD5
:104F3000530ED96F000EDA6F4FD80FD000011D0E3F
:104F4000DE6F3E0ED86F530ED96F000EDA6F44D865
:104F500004D016D802D07CD800D01200050103512D
:104F6000220A02E075D80BD000011D0EDE6F3E0E46
:104F7000D86F530ED96F000EDA6F2ED800D0120002
:104F800005010251020A1CE0030A0FE0010A02E0D7
:104F90005FD821D00001960ED86F530ED96F000E46
:104FA000DA6F040EDE6F18D816D000019A0ED86F93
:104FB000530ED96F000EDA6F340EDE6F0DD80BD0A2
:104FC0000001CE0ED86F530ED96F000EDA6F2E0E81
:104FD000DE6F02D800D012000001D6870401080E4F
:104FE000046FF3EF27F0050106510001D880DE556C
:104FF00002E206C5DEF0DEC0DFF0DF51400802E26B
:10500000400EDF6FDF51DE5FDFC005F4400EDB6F67
:10501000050EDC6FDF51DF07000918E0D8C0F6FF8E
:10502000D82BD9C0F7FF000ED923DAC0F8FFDA2356
:105030000800F550E66EDBC0E9FFDCC0EAFFDB2BC1
:10504000000EDC23E552E750EF6EE4D730EF28F096
:10505000708012000401056B080E046F30EF28F019
:10506000400E04010415400A80090809046F12006B
:0E5070006D980401400E016F800E006F12005B
:02507E0094900C
:105080009398E66A05D8E552E66A1ED8E552120002
:10509000D9CFE6FFDACFE6FFE1CFD9FFE2CFDAFFE3
:1050A000FD0EDBCFF0F0DBCFF1F0C00E0001F0150C
:1050B00005E1F0AB02D08B8001D08B90E552E5CFBB
:1050C000DAFFE7CFD9FF1200D9CFE6FFDACFE6FF4C
:1050D000E1CFD9FFE2CFDAFFFD0EDBCFF2F0DBCF7D
:1050E000F3F0C00E0001F21505E1F2AB02D08A88A0
:1050F00001D08A98E552E5CFDAFFE7CFD9FF120059
:105100000001BC5101E035D07A0EBC6F0001F1AF57
:1051100017D01F0EF11502E0F1070DD0200EF11788
:10512000F17BDF0EF015F113F1ADF19FF1AB02D081
:105130008B8001D08B90F1AB02D08B8001D08B9013
:10514000F3AF17D01F0EF31502E0F3070DD0200EBA
:10515000F317F37BDF0EF215F313F3ADF39FF3AB0D
:1051600002D08A8801D08A98F3AB02D08A8801D015
:045170008A98120007
:0C517400D56AF29AF194F294F28AC20E0D
:10518000D56E0001F70ECF6FD16BD26BD36BD06BA6
:105190001200F2A44BD0F2940001D22BD25104E1C0
:1051A000D32BD35101E1D081C651C71103E0C6070B
:1051B000000EC75BC851C91103E0C807000EC95BE8
:1051C000CA51CB1103E0CA07000ECB5BCC51CD1105
:1051D00003E0CC07000ECD5BBA5101E0BA07BB512A
:1051E00001E0BB07BC5101E0BC07BD5101E0BD07B8
:1051F000BE5101E0BE07CE2B19E1BF5101E0BF0750
:10520000C05101E0C007C15101E0C107C25101E036
:10521000C207C35101E0C307CF2B08E1F70ECF6FE0
:10522000C45101E0C407C55101E0C5071200F29A5C
:10523000D6CFD1F0F2A402D00001D1690001D0A1F3
:1052400002D0D083D091F28A1200F29A0001D26B80
:0A525000D36BD091D093F28A1200C4
:06525A006AD892800F0EDD
:10526000C1140F0802E10E0EC16E94940701006B89
:10527000016B1200D9CFE6FFDACFE6FFE1CFD9FF0D
:10528000E2CFDAFF3D0EC06E030EC26EC2B2FED791
:10529000070100A50ED0FD0EDB50C45C09E2030E31
:1052A000015D02E2012B03D013D80701008301D076
:1052B000016BC45000D0E552E5CFDAFFE7CFD9FF4C
:1052C000120036D8070100B302D082840085120094
:1052D0002FD88294070100951200D9CFE6FFDACFCC
:1052E000E6FFE1CFD9FFE2CFDAFF070100B31AD022
:1052F00000B107D0730ECB6E040ECA6E0C0EBD6EDD
:105300000081FD0EDB40E8403F0BBE6EFD0EDBA2D0
:1053100002D0BD8A01D0BD9ADBA002D0BD8801D0E9
:10532000BD980085E552E5CFDAFFE7CFD9FF12003F
:0E533000070100A103D0CA6ABD6A00911200F5
:02533E00060067
:10534000FF0901A10119012940150026FF00750878
:1053500095408102190129409102C012010101000A
:10536000000040D8043600000101020001090229B2
:10537000000101008032090400000203000000095E
:105380002101000001221D00070501034000010763
:105390000581034000010403090434034D00690042
:1053A000630072006F0063006800690070002000F5
:1053B00054006500630068006E006F006C006F00B1
:1053C00067007900200049006E0063002E002E0364
:1053D0005000490043006B00690074002000530036
:1053E00065007200690061006C00200041006E00E1
:0C53F00061006C0079007A00650072001A
:0453FC00000EF66E3B
:105400007D0EF76E000EF86E00010900F550E56F95
:105410000900F550E66F03E1E56701D03DD00900D2
:10542000F550E06F0900F550E16F0900F550E26FAB
:1054300009000900F550E96E0900F550EA6E09000F
:1054400009000900F550E36F0900F550E46F090009
:105450000900F6CFE7F0F7CFE8F0F8CFE9F0E0C0C9
:10546000F6FFE1C0F7FFE2C0F8FF0001E35302E1FD
:10547000E45307E00900F550EE6EE307F8E2E407B5
:10548000F9D7E7C0F6FFE8C0F7FFE9C0F8FF000171
:0A549000E507000EE65BBFD712002F
:06549A00B00EB16E12001D
:1054A000D9CFE6FFDACFE6FFE1CFD9FFE2CFDAFFCF
:1054B000E652E652FC0EDBCFDEFFDBCFDDFFB00EA7
:1054C000B16E08680968DECF0DF0DDCF0EF064EC38
:1054D0002BF006C0DEFF07C0DDFF010EDB50B36E10
:1054E000DF50B26EA192B180E552E552E552E5CFB0
:1054F000DAFFE7CFD9FF1200D9CFE6FFDACFE6FF18
:10550000E1CFD9FFE2CFDAFFFC0EDBCFE6FFFD0EE5
:10551000DBCFE6FFC5DFE552E552A1A2FED7E5529B
:0A552000E5CFDAFFE7CFD9FF120054
:06552A000001F46BF56BBB
:10553000F66BF76912000001F6510CE0F52BF551FE
:10554000146E156AFF0E141801E1155001E1F56B98
:10555000F607F72BF551EA6A000FE96E010EEA2211
:10556000EF5000D01200D9CFE6FFDACFE6FFE1CF4F
:10557000D9FFE2CFDAFF0001F75115E0F42BF45127
:10558000146E156AFF0E141801E1155001E1F46B59
:10559000F451EA6A000FE96E010EEA22FD0EDBCF3C
:1055A000EFFFF62BF70700D0E552E5CFDAFFE7CFA4
:0455B000D9FF12000D
:0C55B4000001F86BF96BFA6BFB69120048
:1055C0000001FA510CE0F92BF951146E156AFF0E27
:1055D000141801E1155001E1F96BFA07FB2BF951A1
:1055E000EA6A000FE96E020EEA22EF5000D01200C4
:1055F000D9CFE6FFDACFE6FFE1CFD9FFE2CFDAFF7E
:105600000001FB5115E0F82BF851146E156AFF0EDE
:10561000141801E1155001E1F86BF851EA6A000F26
:10562000E96E020EEA22FD0EDBCFEFFFFA2BFB073D
:0E56300000D0E552E5CFDAFFE7CFD9FF120038
:02563E00000169
:10564000FC6BFD6BFE6BFF6912000001FE510CE06C
:10565000FD2BFD51146E156AFF0E141801E1155053
:1056600001E1FD6BFE07FF2BFD51EA6A000FE96EB9
:10567000060EEA22EF5000D01200D9CFE6FFDACFB3
:10568000E6FFE1CFD9FFE2CFDAFF0001FF5115E0DD
:10569000FC2BFC51146E156AFF0E141801E1155015
:1056A00001E1FC6BFC51EA6A000FE96E060EEA228A
:1056B000FD0EDBCFEFFFFE2BFF0700D0E552E5CF5D
:0856C000DAFFE7CFD9FF120069
:0856C80008C012F008500D02A9
:1056D000F4CF07F0F3CF06F009500E02F4CF09F033
:1056E000F3CF08F00D02F3500726F4500822E86AC1
:1056F000092212500E02F3500726F4500822E86ADD
:045700000922000C6E
:0C570400C0000001FF00000000000000D9
:0C5710000000000000000000000000008D
:04571C0000EE00F0AB
:0A5720000F0EEE6AEA62FDD71200D8
:027CFE005555DA
:027D0000000081
:0E7D0200D9CFE6FFDACFE6FFE1CFD9FFE2CF1F
:107D1000DAFF060EE12402E3E168E652E16E0000BC
:107D20005AEC26F03FEC28F0BAEC28F01CEC19F0E5
:107D30000000000000000000D08EF28EF28CC8EC33
:107D400026F080EC28F03CEC19F0E5EC10F0000196
:107D5000609DF5D7060EE15C02E2E16AE552E16E54
:107D6000E552E5CFDAFFE7CFD9FF1200E652E55240
:107D70001100D8CFE4FFE0CFE4FFE46EE9CFE4FFE9
:107D8000EACFE4FFF6CFE4FFF7CFE4FFF8CFE4FF5C
:107D9000F5CFE4FFF3CFE4FFF4CFE4FFFACFE4FF45
:107DA000FBCFE4FF00EE00F0140EE80403E3EECF97
:107DB000E4FFFBD700EE14F0060EE80403E3EECF79
:107DC000E4FFFBD7E6529D50080B06E09E50080BDF
:107DD00003E000002CEC1DF0C9EC28F09D50200BB6
:107DE0000FE09E50200B0CE00A0E0001855D02E1C1
:107DF000CCEC16F0040E0001855D02E106EC24F0E7
:107E00009D50100B09E09E50100B06E00A0E000179
:107E1000855D02E164EC18F0E55200EE19F0060E03
:107E2000E80403E3E5CFEDFFFBD700EE13F0140EFB
:107E3000E80403E3E5CFEDFFFBD7E5CFFBFFE5CF9C
:107E4000FAFFE5CFF4FFE5CFF3FFE5CFF5FFE5CF90
:107E5000F8FFE5CFF7FFE5CFF6FFE5CFEAFFE5CF87
:0E7E6000E9FFE550E5CFE0FFE5CFD8FF1000C9
:027E6E00000111
:107E7000D6A511D0040108510001800B02E0D69D67
:107E800001D0D68D04010C510001800B02E0D69F79
:107E900001D0D68F02D0D69DD69F1200400E04018D
:107EA0000C15400A80090C6F37EF3FF0400E0401BB
:107EB0000815400A8009086F37EF3FF0D9CFE6FF79
:107EC000DACFE6FFE1CFD9FFE2CFDAFF0001800E83
:107ED000D86F050ED96F400EDE6FDE51DE07000948
:107EE00016E0D8C0E9FFD9C0EAFFD82B000ED9238D
:107EF000EF50E66EFC0EDBCFE9FFDB2AFD0EDBCF99
:107F0000EAFF01E3DB2AE552E750EF6EE6D7CEDF6A
:107F1000E552E5CFDAFFE7CFD9FF1200D9CFE6FF70
:107F2000DACFE6FFE1CFD9FFE2CFDAFF0001C00EE2
:107F3000DB6F050EDC6F400EDE6FDE51DE070009E1
:107F400016E0FC0EDBCFE9FFDB2AFD0EDBCFEAFFFC
:107F500001E3DB2AEF50E66EDBC0E9FFDCC0EAFF9D
:107F6000DB2B000EDC23E552E750EF6EE6D796DF01
:0C7F7000E552E5CFDAFFE7CFD9FF1200A1
:047F7C000001EC29EB
:107F80000001ED6F06D8EAC0EBF0ECC0EDF0C9EFF0
:107F90003FF0EDC0A9FFA66AA680A8CFEAF0A850DE
:107FA00000D01200A66AF29EF2BEFDD7A684550E3E
:107FB000A76EAA0EA76EA682F28EA6B2FED7A694D0
:107FC000A92A1200EEC0A9FFEFC0A8FFD2EF3FF030
:107FD00013EE00F023EE00F0F86A019CFEEC29F0AD
:0C7FE000FDEC3FF081EC3EF0FBD71200FE
:047FEC00896A8A6AAA
:0A7FF0008B6A926A936A946A120089
:027FFA00120073
:020000040030CA
:0100000024DB
:010001000CF2
:010002003FBE
:010003001EDE
:0100050000FA
:010006008178
:010008000FE8
:01000900C036
:01000A000FE6
:01000B00E014
:01000C000FE4
:01000D0040B2
:00000001FF
